{
  "contractName": "Adoption",
  "abi": [
    {
      "inputs": [],
      "stateMutability": "nonpayable",
      "type": "constructor"
    },
    {
      "anonymous": false,
      "inputs": [
        {
          "indexed": false,
          "internalType": "uint256",
          "name": "amount",
          "type": "uint256"
        }
      ],
      "name": "DonationWithdrawn",
      "type": "event"
    },
    {
      "anonymous": false,
      "inputs": [
        {
          "indexed": false,
          "internalType": "uint256",
          "name": "petId",
          "type": "uint256"
        }
      ],
      "name": "PetAdded",
      "type": "event"
    },
    {
      "anonymous": false,
      "inputs": [
        {
          "indexed": false,
          "internalType": "uint256",
          "name": "petId",
          "type": "uint256"
        }
      ],
      "name": "PetAdopted",
      "type": "event"
    },
    {
      "stateMutability": "payable",
      "type": "fallback",
      "payable": true
    },
    {
      "inputs": [],
      "name": "adopterCount",
      "outputs": [
        {
          "internalType": "uint256",
          "name": "",
          "type": "uint256"
        }
      ],
      "stateMutability": "view",
      "type": "function",
      "constant": true
    },
    {
      "inputs": [],
      "name": "breedCount",
      "outputs": [
        {
          "internalType": "uint256",
          "name": "",
          "type": "uint256"
        }
      ],
      "stateMutability": "view",
      "type": "function",
      "constant": true
    },
    {
      "inputs": [
        {
          "internalType": "uint256",
          "name": "",
          "type": "uint256"
        }
      ],
      "name": "breeds",
      "outputs": [
        {
          "internalType": "uint256",
          "name": "id",
          "type": "uint256"
        },
        {
          "internalType": "string",
          "name": "breedName",
          "type": "string"
        },
        {
          "internalType": "uint256",
          "name": "adotpionCount",
          "type": "uint256"
        }
      ],
      "stateMutability": "view",
      "type": "function",
      "constant": true
    },
    {
      "inputs": [
        {
          "internalType": "address",
          "name": "",
          "type": "address"
        }
      ],
      "name": "isAdopter",
      "outputs": [
        {
          "internalType": "bool",
          "name": "",
          "type": "bool"
        }
      ],
      "stateMutability": "view",
      "type": "function",
      "constant": true
    },
    {
      "inputs": [],
      "name": "mostAdoptedBreedId",
      "outputs": [
        {
          "internalType": "uint256",
          "name": "",
          "type": "uint256"
        }
      ],
      "stateMutability": "view",
      "type": "function",
      "constant": true
    },
    {
      "inputs": [],
      "name": "owner",
      "outputs": [
        {
          "internalType": "address",
          "name": "",
          "type": "address"
        }
      ],
      "stateMutability": "view",
      "type": "function",
      "constant": true
    },
    {
      "inputs": [],
      "name": "petAdotptionCount",
      "outputs": [
        {
          "internalType": "uint256",
          "name": "",
          "type": "uint256"
        }
      ],
      "stateMutability": "view",
      "type": "function",
      "constant": true
    },
    {
      "inputs": [],
      "name": "petCount",
      "outputs": [
        {
          "internalType": "uint256",
          "name": "",
          "type": "uint256"
        }
      ],
      "stateMutability": "view",
      "type": "function",
      "constant": true
    },
    {
      "inputs": [
        {
          "internalType": "uint256",
          "name": "",
          "type": "uint256"
        }
      ],
      "name": "pets",
      "outputs": [
        {
          "internalType": "uint256",
          "name": "id",
          "type": "uint256"
        },
        {
          "internalType": "uint256",
          "name": "voteCount",
          "type": "uint256"
        },
        {
          "components": [
            {
              "internalType": "uint256",
              "name": "id",
              "type": "uint256"
            },
            {
              "internalType": "string",
              "name": "breedName",
              "type": "string"
            },
            {
              "internalType": "uint256",
              "name": "adotpionCount",
              "type": "uint256"
            }
          ],
          "internalType": "struct Adoption.Breed",
          "name": "breed",
          "type": "tuple"
        },
        {
          "internalType": "bool",
          "name": "adopted",
          "type": "bool"
        },
        {
          "internalType": "string",
          "name": "petName",
          "type": "string"
        },
        {
          "internalType": "string",
          "name": "picture",
          "type": "string"
        },
        {
          "internalType": "uint256",
          "name": "age",
          "type": "uint256"
        },
        {
          "internalType": "string",
          "name": "location",
          "type": "string"
        },
        {
          "internalType": "address",
          "name": "adopter",
          "type": "address"
        }
      ],
      "stateMutability": "view",
      "type": "function",
      "constant": true
    },
    {
      "inputs": [
        {
          "internalType": "address",
          "name": "",
          "type": "address"
        }
      ],
      "name": "votedAddresses",
      "outputs": [
        {
          "internalType": "bool",
          "name": "",
          "type": "bool"
        }
      ],
      "stateMutability": "view",
      "type": "function",
      "constant": true
    },
    {
      "inputs": [
        {
          "internalType": "uint256",
          "name": "_petId",
          "type": "uint256"
        }
      ],
      "name": "adoptPet",
      "outputs": [],
      "stateMutability": "nonpayable",
      "type": "function"
    },
    {
      "inputs": [
        {
          "internalType": "uint256",
          "name": "_petId",
          "type": "uint256"
        }
      ],
      "name": "votePet",
      "outputs": [],
      "stateMutability": "nonpayable",
      "type": "function"
    },
    {
      "inputs": [],
      "name": "getVote",
      "outputs": [
        {
          "internalType": "uint256",
          "name": "",
          "type": "uint256"
        }
      ],
      "stateMutability": "view",
      "type": "function",
      "constant": true
    },
    {
      "inputs": [],
      "name": "withdrawDonation",
      "outputs": [
        {
          "internalType": "bool",
          "name": "",
          "type": "bool"
        }
      ],
      "stateMutability": "nonpayable",
      "type": "function"
    },
    {
      "inputs": [
        {
          "internalType": "uint256",
          "name": "_petId",
          "type": "uint256"
        }
      ],
      "name": "adopt",
      "outputs": [
        {
          "internalType": "uint256",
          "name": "",
          "type": "uint256"
        }
      ],
      "stateMutability": "nonpayable",
      "type": "function"
    },
    {
      "inputs": [],
      "name": "getAdopters",
      "outputs": [
        {
          "internalType": "address[]",
          "name": "",
          "type": "address[]"
        }
      ],
      "stateMutability": "view",
      "type": "function",
      "constant": true
    },
    {
      "inputs": [],
      "name": "getAdoptStatus",
      "outputs": [
        {
          "internalType": "bool[]",
          "name": "",
          "type": "bool[]"
        }
      ],
      "stateMutability": "view",
      "type": "function",
      "constant": true
    },
    {
      "inputs": [
        {
          "internalType": "string",
          "name": "breedName",
          "type": "string"
        }
      ],
      "name": "addBreedIfNeeded",
      "outputs": [
        {
          "internalType": "uint256",
          "name": "",
          "type": "uint256"
        }
      ],
      "stateMutability": "nonpayable",
      "type": "function"
    },
    {
      "inputs": [
        {
          "internalType": "string",
          "name": "petName",
          "type": "string"
        },
        {
          "internalType": "string",
          "name": "picture",
          "type": "string"
        },
        {
          "internalType": "uint256",
          "name": "age",
          "type": "uint256"
        },
        {
          "internalType": "string",
          "name": "breedName",
          "type": "string"
        },
        {
          "internalType": "string",
          "name": "location",
          "type": "string"
        }
      ],
      "name": "addPet",
      "outputs": [
        {
          "internalType": "uint256",
          "name": "",
          "type": "uint256"
        }
      ],
      "stateMutability": "nonpayable",
      "type": "function"
    },
    {
      "inputs": [],
      "name": "getLatestPet",
      "outputs": [
        {
          "internalType": "uint256",
          "name": "",
          "type": "uint256"
        },
        {
          "internalType": "bool",
          "name": "",
          "type": "bool"
        },
        {
          "internalType": "string",
          "name": "",
          "type": "string"
        },
        {
          "internalType": "string",
          "name": "",
          "type": "string"
        },
        {
          "internalType": "uint256",
          "name": "",
          "type": "uint256"
        },
        {
          "internalType": "string",
          "name": "",
          "type": "string"
        },
        {
          "internalType": "string",
          "name": "",
          "type": "string"
        }
      ],
      "stateMutability": "view",
      "type": "function",
      "constant": true
    },
    {
      "inputs": [
        {
          "internalType": "uint256",
          "name": "id",
          "type": "uint256"
        }
      ],
      "name": "getPetById",
      "outputs": [
        {
          "internalType": "uint256",
          "name": "",
          "type": "uint256"
        },
        {
          "internalType": "bool",
          "name": "",
          "type": "bool"
        },
        {
          "internalType": "string",
          "name": "",
          "type": "string"
        },
        {
          "internalType": "string",
          "name": "",
          "type": "string"
        },
        {
          "internalType": "uint256",
          "name": "",
          "type": "uint256"
        },
        {
          "internalType": "string",
          "name": "",
          "type": "string"
        },
        {
          "internalType": "string",
          "name": "",
          "type": "string"
        }
      ],
      "stateMutability": "view",
      "type": "function",
      "constant": true
    },
    {
      "inputs": [],
      "name": "getPetCount",
      "outputs": [
        {
          "internalType": "uint256",
          "name": "",
          "type": "uint256"
        }
      ],
      "stateMutability": "view",
      "type": "function",
      "constant": true
    },
    {
      "inputs": [],
      "name": "getAllPets",
      "outputs": [
        {
          "internalType": "uint256[]",
          "name": "ids",
          "type": "uint256[]"
        },
        {
          "internalType": "bool[]",
          "name": "adopteds",
          "type": "bool[]"
        },
        {
          "internalType": "string[]",
          "name": "petNames",
          "type": "string[]"
        },
        {
          "internalType": "string[]",
          "name": "pictures",
          "type": "string[]"
        },
        {
          "internalType": "uint256[]",
          "name": "ages",
          "type": "uint256[]"
        },
        {
          "internalType": "string[]",
          "name": "breedNames",
          "type": "string[]"
        },
        {
          "internalType": "string[]",
          "name": "locations",
          "type": "string[]"
        }
      ],
      "stateMutability": "view",
      "type": "function",
      "constant": true
    }
  ],
  "bytecode": "0x60806040523480156200001157600080fd5b50336000806101000a81548173ffffffffffffffffffffffffffffffffffffffff021916908373ffffffffffffffffffffffffffffffffffffffff16021790555060006001819055506000600281905550600060038190555060006004819055506000600581905550620001486040518060400160405280600781526020017f536372617070790000000000000000000000000000000000000000000000000081525060405180608001604052806046815260200162003a9e6046913960036040518060400160405280601081526020017f476f6c64656e20526574726965766572000000000000000000000000000000008152506040518060400160405280600a81526020017f57617272656e2c204d49000000000000000000000000000000000000000000008152506200014f60201b60201c565b50620008b6565b6000806200016384620003f060201b60201c565b90506040518061012001604052806001548152602001600081526020016007600084815260200190815260200160002060405180606001604052908160008201548152602001600182018054620001ba906200060e565b80601f0160208091040260200160405190810160405280929190818152602001828054620001e8906200060e565b8015620002395780601f106200020d5761010080835404028352916020019162000239565b820191906000526020600020905b8154815290600101906020018083116200021b57829003601f168201915b505050505081526020016002820154815250508152602001600015158152602001888152602001878152602001868152602001848152602001600073ffffffffffffffffffffffffffffffffffffffff168152506006600060015481526020019081526020016000206000820151816000015560208201518160010155604082015181600201600082015181600001556020820151816001019080519060200190620002e79291906200052f565b5060408201518160020155505060608201518160050160006101000a81548160ff0219169083151502179055506080820151816006019080519060200190620003329291906200052f565b5060a0820151816007019080519060200190620003519291906200052f565b5060c0820151816008015560e08201518160090190805190602001906200037a9291906200052f565b5061010082015181600a0160006101000a81548173ffffffffffffffffffffffffffffffffffffffff021916908373ffffffffffffffffffffffffffffffffffffffff1602179055509050506001806000828254620003da91906200067c565b9250508190555060015491505095945050505050565b600080600090505b6002548110156200049057826040516020016200041691906200075c565b604051602081830303815290604052805190602001206007600083815260200190815260200160002060010160405160200162000454919062000815565b60405160208183030381529060405280519060200120036200047a57809150506200052a565b808062000487906200082e565b915050620003f8565b50604051806060016040528060025481526020018381526020016000815250600760006002548152602001908152602001600020600082015181600001556020820151816001019080519060200190620004ec9291906200052f565b50604082015181600201559050506001600260008282546200050f91906200067c565b9250508190555060016002546200052791906200087b565b90505b919050565b8280546200053d906200060e565b90600052602060002090601f016020900481019282620005615760008555620005ad565b82601f106200057c57805160ff1916838001178555620005ad565b82800160010185558215620005ad579182015b82811115620005ac5782518255916020019190600101906200058f565b5b509050620005bc9190620005c0565b5090565b5b80821115620005db576000816000905550600101620005c1565b5090565b7f4e487b7100000000000000000000000000000000000000000000000000000000600052602260045260246000fd5b600060028204905060018216806200062757607f821691505b6020821081036200063d576200063c620005df565b5b50919050565b6000819050919050565b7f4e487b7100000000000000000000000000000000000000000000000000000000600052601160045260246000fd5b6000620006898262000643565b9150620006968362000643565b9250827fffffffffffffffffffffffffffffffffffffffffffffffffffffffffffffffff03821115620006ce57620006cd6200064d565b5b828201905092915050565b600081519050919050565b600081905092915050565b60005b838110156200070f578082015181840152602081019050620006f2565b838111156200071f576000848401525b50505050565b60006200073282620006d9565b6200073e8185620006e4565b935062000750818560208601620006ef565b80840191505092915050565b60006200076a828462000725565b915081905092915050565b60008190508160005260206000209050919050565b6000815462000799816200060e565b620007a58186620006e4565b94506001821660008114620007c35760018114620007d5576200080c565b60ff198316865281860193506200080c565b620007e08562000775565b60005b838110156200080457815481890152600182019150602081019050620007e3565b838801955050505b50505092915050565b60006200082382846200078a565b915081905092915050565b60006200083b8262000643565b91507fffffffffffffffffffffffffffffffffffffffffffffffffffffffffffffffff820362000870576200086f6200064d565b5b600182019050919050565b6000620008888262000643565b9150620008958362000643565b925082821015620008ab57620008aa6200064d565b5b828203905092915050565b6131d880620008c66000396000f3fe6080604052600436106101445760003560e01c8063736da45c116100b6578063cd619f581161006f578063cd619f58146104b0578063cec424d4146104db578063cfb869bf14610506578063d3db50a01461054b578063e608eb1f14610576578063e81e1ccc146105a157610145565b8063736da45c146103745780638588b2c51461039d57806387c54ad8146103da5780638da5cb5b14610417578063b869b5d214610442578063cb9205091461046d57610145565b80635119bf38116101085780635119bf38146102305780635213d7bc1461026d57806352e58820146102aa5780635b236d97146102db578063656ae1db1461030c57806369a829fe1461034957610145565b80630242f3511461014757806319b81577146101725780632c0209f51461019b5780633de4eb17146101da5780634e8933de1461020557610145565b5b005b34801561015357600080fd5b5061015c6105cc565b6040516101699190612303565b60405180910390f35b34801561017e57600080fd5b506101996004803603810190610194919061235e565b61063f565b005b3480156101a757600080fd5b506101c260048036038101906101bd919061235e565b6108a1565b6040516101d193929190612424565b60405180910390f35b3480156101e657600080fd5b506101ef610953565b6040516101fc9190612552565b60405180910390f35b34801561021157600080fd5b5061021a610a50565b6040516102279190612303565b60405180910390f35b34801561023c57600080fd5b50610257600480360381019061025291906126a9565b610a5a565b6040516102649190612303565b60405180910390f35b34801561027957600080fd5b50610294600480360381019061028f919061271e565b610b89565b6040516102a19190612766565b60405180910390f35b3480156102b657600080fd5b506102bf610ba9565b6040516102d29796959493929190612781565b60405180910390f35b3480156102e757600080fd5b506102f0610f68565b6040516103039796959493929190612a94565b60405180910390f35b34801561031857600080fd5b50610333600480360381019061032e9190612b34565b611590565b6040516103409190612303565b60405180910390f35b34801561035557600080fd5b5061035e611817565b60405161036b9190612303565b60405180910390f35b34801561038057600080fd5b5061039b6004803603810190610396919061235e565b61181d565b005b3480156103a957600080fd5b506103c460048036038101906103bf919061235e565b611978565b6040516103d19190612303565b60405180910390f35b3480156103e657600080fd5b5061040160048036038101906103fc919061271e565b611a3e565b60405161040e9190612766565b60405180910390f35b34801561042357600080fd5b5061042c611a5e565b6040516104399190612c2e565b60405180910390f35b34801561044e57600080fd5b50610457611a82565b6040516104649190612303565b60405180910390f35b34801561047957600080fd5b50610494600480360381019061048f919061235e565b611a88565b6040516104a79796959493929190612781565b60405180910390f35b3480156104bc57600080fd5b506104c5611d97565b6040516104d29190612303565b60405180910390f35b3480156104e757600080fd5b506104f0611d9d565b6040516104fd9190612303565b60405180910390f35b34801561051257600080fd5b5061052d6004803603810190610528919061235e565b611da3565b60405161054299989796959493929190612c99565b60405180910390f35b34801561055757600080fd5b50610560612066565b60405161056d9190612d42565b60405180910390f35b34801561058257600080fd5b5061058b612128565b6040516105989190612303565b60405180910390f35b3480156105ad57600080fd5b506105b661212e565b6040516105c39190612766565b60405180910390f35b6000806000905060005b60015481101561062b57600660008381526020019081526020016000206001015460066000838152602001908152602001600020600101541115610618578091505b808061062390612d93565b9150506105d6565b506001816106399190612ddb565b91505090565b6006600082815260200190815260200160002060050160009054906101000a900460ff16156106a3576040517f08c379a000000000000000000000000000000000000000000000000000000000815260040161069a90612e7d565b60405180910390fd5b60016006600083815260200190815260200160002060050160006101000a81548160ff0219169083151502179055506001600760006006600085815260200190815260200160002060020160000154815260200190815260200160002060020160008282546107129190612ddb565b9250508190555060016003600082825461072c9190612ddb565b925050819055506007600060045481526020019081526020016000206002015460076000600660008581526020019081526020016000206002016000015481526020019081526020016000206002015411156107a35760066000828152602001908152602001600020600201600001546004819055505b600960003373ffffffffffffffffffffffffffffffffffffffff1673ffffffffffffffffffffffffffffffffffffffff16815260200190815260200160002060009054906101000a900460ff16610867576001600960003373ffffffffffffffffffffffffffffffffffffffff1673ffffffffffffffffffffffffffffffffffffffff16815260200190815260200160002060006101000a81548160ff02191690831515021790555060016005600082825461085f9190612ddb565b925050819055505b7f87b11a36a7d8951907601f47f6fa4a32bffadebbff2e4894922b25922d340d85816040516108969190612303565b60405180910390a150565b60076020528060005260406000206000915090508060000154908060010180546108ca90612ecc565b80601f01602080910402602001604051908101604052809291908181526020018280546108f690612ecc565b80156109435780601f1061091857610100808354040283529160200191610943565b820191906000526020600020905b81548152906001019060200180831161092657829003601f168201915b5050505050908060020154905083565b6060600060015467ffffffffffffffff8111156109735761097261257e565b5b6040519080825280602002602001820160405280156109a15781602001602082028036833780820191505090505b50905060005b600154811015610a485760066000828152602001908152602001600020600a0160009054906101000a900473ffffffffffffffffffffffffffffffffffffffff168282815181106109fb576109fa612efd565b5b602002602001019073ffffffffffffffffffffffffffffffffffffffff16908173ffffffffffffffffffffffffffffffffffffffff16815250508080610a4090612d93565b9150506109a7565b508091505090565b6000600154905090565b600080600090505b600254811015610af05782604051602001610a7d9190612f68565b6040516020818303038152906040528051906020012060076000838152602001908152602001600020600101604051602001610ab99190613013565b6040516020818303038152906040528051906020012003610add5780915050610b84565b8080610ae890612d93565b915050610a62565b50604051806060016040528060025481526020018381526020016000815250600760006002548152602001908152602001600020600082015181600001556020820151816001019080519060200190610b4a929190612247565b5060408201518160020155905050600160026000828254610b6b9190612ddb565b925050819055506001600254610b81919061302a565b90505b919050565b60086020528060005260406000206000915054906101000a900460ff1681565b6000806060806000606080600060015403610c185760008060006040518060200160405280600081525090604051806020016040528060008152509060405180602001604052806000815250604051806020016040528060008152509650965096509650965096509650610f5f565b6006600060018054610c2a919061302a565b8152602001908152602001600020600001546006600060018054610c4e919061302a565b815260200190815260200160002060050160009054906101000a900460ff166006600060018054610c7f919061302a565b81526020019081526020016000206006016006600060018054610ca2919061302a565b81526020019081526020016000206007016006600060018054610cc5919061302a565b8152602001908152602001600020600801546006600060018054610ce9919061302a565b81526020019081526020016000206002016001016006600060018054610d0f919061302a565b8152602001908152602001600020600901848054610d2c90612ecc565b80601f0160208091040260200160405190810160405280929190818152602001828054610d5890612ecc565b8015610da55780601f10610d7a57610100808354040283529160200191610da5565b820191906000526020600020905b815481529060010190602001808311610d8857829003601f168201915b50505050509450838054610db890612ecc565b80601f0160208091040260200160405190810160405280929190818152602001828054610de490612ecc565b8015610e315780601f10610e0657610100808354040283529160200191610e31565b820191906000526020600020905b815481529060010190602001808311610e1457829003601f168201915b50505050509350818054610e4490612ecc565b80601f0160208091040260200160405190810160405280929190818152602001828054610e7090612ecc565b8015610ebd5780601f10610e9257610100808354040283529160200191610ebd565b820191906000526020600020905b815481529060010190602001808311610ea057829003601f168201915b50505050509150808054610ed090612ecc565b80601f0160208091040260200160405190810160405280929190818152602001828054610efc90612ecc565b8015610f495780601f10610f1e57610100808354040283529160200191610f49565b820191906000526020600020905b815481529060010190602001808311610f2c57829003601f168201915b5050505050905096509650965096509650965096505b90919293949596565b606080606080606080606060015467ffffffffffffffff811115610f8f57610f8e61257e565b5b604051908082528060200260200182016040528015610fbd5781602001602082028036833780820191505090505b50965060015467ffffffffffffffff811115610fdc57610fdb61257e565b5b60405190808252806020026020018201604052801561100a5781602001602082028036833780820191505090505b50955060015467ffffffffffffffff8111156110295761102861257e565b5b60405190808252806020026020018201604052801561105c57816020015b60608152602001906001900390816110475790505b50945060015467ffffffffffffffff81111561107b5761107a61257e565b5b6040519080825280602002602001820160405280156110ae57816020015b60608152602001906001900390816110995790505b50935060015467ffffffffffffffff8111156110cd576110cc61257e565b5b6040519080825280602002602001820160405280156110fb5781602001602082028036833780820191505090505b50925060015467ffffffffffffffff81111561111a5761111961257e565b5b60405190808252806020026020018201604052801561114d57816020015b60608152602001906001900390816111385790505b50915060015467ffffffffffffffff81111561116c5761116b61257e565b5b60405190808252806020026020018201604052801561119f57816020015b606081526020019060019003908161118a5790505b50905060005b6001548110156115865760006006600083815260200190815260200160002060060180546111d290612ecc565b80601f01602080910402602001604051908101604052809291908181526020018280546111fe90612ecc565b801561124b5780601f106112205761010080835404028352916020019161124b565b820191906000526020600020905b81548152906001019060200180831161122e57829003601f168201915b50505050509050600060066000848152602001908152602001600020600701805461127590612ecc565b80601f01602080910402602001604051908101604052809291908181526020018280546112a190612ecc565b80156112ee5780601f106112c3576101008083540402835291602001916112ee565b820191906000526020600020905b8154815290600101906020018083116112d157829003601f168201915b50505050509050600060066000858152602001908152602001600020600201600101805461131b90612ecc565b80601f016020809104026020016040519081016040528092919081815260200182805461134790612ecc565b80156113945780601f1061136957610100808354040283529160200191611394565b820191906000526020600020905b81548152906001019060200180831161137757829003601f168201915b5050505050905060006006600086815260200190815260200160002060090180546113be90612ecc565b80601f01602080910402602001604051908101604052809291908181526020018280546113ea90612ecc565b80156114375780601f1061140c57610100808354040283529160200191611437565b820191906000526020600020905b81548152906001019060200180831161141a57829003601f168201915b5050505050905060066000868152602001908152602001600020600001548c868151811061146857611467612efd565b5b6020026020010181815250506006600086815260200190815260200160002060050160009054906101000a900460ff168b86815181106114ab576114aa612efd565b5b602002602001019015159081151581525050838a86815181106114d1576114d0612efd565b5b6020026020010181905250828986815181106114f0576114ef612efd565b5b6020026020010181905250600660008681526020019081526020016000206008015488868151811061152557611524612efd565b5b6020026020010181815250508187868151811061154557611544612efd565b5b60200260200101819052508086868151811061156457611563612efd565b5b602002602001018190525050505050808061157e90612d93565b9150506111a5565b5090919293949596565b60008061159c84610a5a565b905060405180610120016040528060015481526020016000815260200160076000848152602001908152602001600020604051806060016040529081600082015481526020016001820180546115f190612ecc565b80601f016020809104026020016040519081016040528092919081815260200182805461161d90612ecc565b801561166a5780601f1061163f5761010080835404028352916020019161166a565b820191906000526020600020905b81548152906001019060200180831161164d57829003601f168201915b505050505081526020016002820154815250508152602001600015158152602001888152602001878152602001868152602001848152602001600073ffffffffffffffffffffffffffffffffffffffff168152506006600060015481526020019081526020016000206000820151816000015560208201518160010155604082015181600201600082015181600001556020820151816001019080519060200190611716929190612247565b5060408201518160020155505060608201518160050160006101000a81548160ff021916908315150217905550608082015181600601908051906020019061175f929190612247565b5060a082015181600701908051906020019061177c929190612247565b5060c0820151816008015560e08201518160090190805190602001906117a3929190612247565b5061010082015181600a0160006101000a81548173ffffffffffffffffffffffffffffffffffffffff021916908373ffffffffffffffffffffffffffffffffffffffff16021790555090505060018060008282546118019190612ddb565b9250508190555060015491505095945050505050565b60055481565b600860003373ffffffffffffffffffffffffffffffffffffffff1673ffffffffffffffffffffffffffffffffffffffff16815260200190815260200160002060009054906101000a900460ff16156118aa576040517f08c379a00000000000000000000000000000000000000000000000000000000081526004016118a1906130aa565b60405180910390fd5b6001548111156118ef576040517f08c379a00000000000000000000000000000000000000000000000000000000081526004016118e690613116565b60405180910390fd5b60016006600083815260200190815260200160002060010160008282546119169190612ddb565b925050819055506001600860003373ffffffffffffffffffffffffffffffffffffffff1673ffffffffffffffffffffffffffffffffffffffff16815260200190815260200160002060006101000a81548160ff02191690831515021790555050565b60008073ffffffffffffffffffffffffffffffffffffffff163373ffffffffffffffffffffffffffffffffffffffff16036119b257600080fd5b60016006600084815260200190815260200160002060050160006101000a81548160ff0219169083151502179055503360066000848152602001908152602001600020600a0160006101000a81548173ffffffffffffffffffffffffffffffffffffffff021916908373ffffffffffffffffffffffffffffffffffffffff160217905550819050919050565b60096020528060005260406000206000915054906101000a900460ff1681565b60008054906101000a900473ffffffffffffffffffffffffffffffffffffffff1681565b60045481565b60008060608060006060806001548810611aa157600080fd5b6006600089815260200190815260200160002060000154600660008a815260200190815260200160002060050160009054906101000a900460ff16600660008b8152602001908152602001600020600601600660008c8152602001908152602001600020600701600660008d815260200190815260200160002060080154600660008e8152602001908152602001600020600201600101600660008f8152602001908152602001600020600901848054611b5a90612ecc565b80601f0160208091040260200160405190810160405280929190818152602001828054611b8690612ecc565b8015611bd35780601f10611ba857610100808354040283529160200191611bd3565b820191906000526020600020905b815481529060010190602001808311611bb657829003601f168201915b50505050509450838054611be690612ecc565b80601f0160208091040260200160405190810160405280929190818152602001828054611c1290612ecc565b8015611c5f5780601f10611c3457610100808354040283529160200191611c5f565b820191906000526020600020905b815481529060010190602001808311611c4257829003601f168201915b50505050509350818054611c7290612ecc565b80601f0160208091040260200160405190810160405280929190818152602001828054611c9e90612ecc565b8015611ceb5780601f10611cc057610100808354040283529160200191611ceb565b820191906000526020600020905b815481529060010190602001808311611cce57829003601f168201915b50505050509150808054611cfe90612ecc565b80601f0160208091040260200160405190810160405280929190818152602001828054611d2a90612ecc565b8015611d775780601f10611d4c57610100808354040283529160200191611d77565b820191906000526020600020905b815481529060010190602001808311611d5a57829003601f168201915b505050505090509650965096509650965096509650919395979092949650565b60015481565b60035481565b60066020528060005260406000206000915090508060000154908060010154908060020160405180606001604052908160008201548152602001600182018054611dec90612ecc565b80601f0160208091040260200160405190810160405280929190818152602001828054611e1890612ecc565b8015611e655780601f10611e3a57610100808354040283529160200191611e65565b820191906000526020600020905b815481529060010190602001808311611e4857829003601f168201915b50505050508152602001600282015481525050908060050160009054906101000a900460ff1690806006018054611e9b90612ecc565b80601f0160208091040260200160405190810160405280929190818152602001828054611ec790612ecc565b8015611f145780601f10611ee957610100808354040283529160200191611f14565b820191906000526020600020905b815481529060010190602001808311611ef757829003601f168201915b505050505090806007018054611f2990612ecc565b80601f0160208091040260200160405190810160405280929190818152602001828054611f5590612ecc565b8015611fa25780601f10611f7757610100808354040283529160200191611fa2565b820191906000526020600020905b815481529060010190602001808311611f8557829003601f168201915b505050505090806008015490806009018054611fbd90612ecc565b80601f0160208091040260200160405190810160405280929190818152602001828054611fe990612ecc565b80156120365780601f1061200b57610100808354040283529160200191612036565b820191906000526020600020905b81548152906001019060200180831161201957829003601f168201915b50505050509080600a0160009054906101000a900473ffffffffffffffffffffffffffffffffffffffff16905089565b6060600060015467ffffffffffffffff8111156120865761208561257e565b5b6040519080825280602002602001820160405280156120b45781602001602082028036833780820191505090505b50905060005b600154811015612120576006600082815260200190815260200160002060050160009054906101000a900460ff168282815181106120fb576120fa612efd565b5b602002602001019015159081151581525050808061211890612d93565b9150506120ba565b508091505090565b60025481565b60008060009054906101000a900473ffffffffffffffffffffffffffffffffffffffff1673ffffffffffffffffffffffffffffffffffffffff163373ffffffffffffffffffffffffffffffffffffffff16146121bf576040517f08c379a00000000000000000000000000000000000000000000000000000000081526004016121b690613182565b60405180910390fd5b60004790503373ffffffffffffffffffffffffffffffffffffffff166108fc829081150290604051600060405180830381858888f19350505050612207576000915050612244565b7fadad3dc8cf690add201160c828a7a70d8f7134ec9ec064830bf965e8bd5cfeb9816040516122369190612303565b60405180910390a160019150505b90565b82805461225390612ecc565b90600052602060002090601f01602090048101928261227557600085556122bc565b82601f1061228e57805160ff19168380011785556122bc565b828001600101855582156122bc579182015b828111156122bb5782518255916020019190600101906122a0565b5b5090506122c991906122cd565b5090565b5b808211156122e65760008160009055506001016122ce565b5090565b6000819050919050565b6122fd816122ea565b82525050565b600060208201905061231860008301846122f4565b92915050565b6000604051905090565b600080fd5b600080fd5b61233b816122ea565b811461234657600080fd5b50565b60008135905061235881612332565b92915050565b60006020828403121561237457612373612328565b5b600061238284828501612349565b91505092915050565b600081519050919050565b600082825260208201905092915050565b60005b838110156123c55780820151818401526020810190506123aa565b838111156123d4576000848401525b50505050565b6000601f19601f8301169050919050565b60006123f68261238b565b6124008185612396565b93506124108185602086016123a7565b612419816123da565b840191505092915050565b600060608201905061243960008301866122f4565b818103602083015261244b81856123eb565b905061245a60408301846122f4565b949350505050565b600081519050919050565b600082825260208201905092915050565b6000819050602082019050919050565b600073ffffffffffffffffffffffffffffffffffffffff82169050919050565b60006124b98261248e565b9050919050565b6124c9816124ae565b82525050565b60006124db83836124c0565b60208301905092915050565b6000602082019050919050565b60006124ff82612462565b612509818561246d565b93506125148361247e565b8060005b8381101561254557815161252c88826124cf565b9750612537836124e7565b925050600181019050612518565b5085935050505092915050565b6000602082019050818103600083015261256c81846124f4565b905092915050565b600080fd5b600080fd5b7f4e487b7100000000000000000000000000000000000000000000000000000000600052604160045260246000fd5b6125b6826123da565b810181811067ffffffffffffffff821117156125d5576125d461257e565b5b80604052505050565b60006125e861231e565b90506125f482826125ad565b919050565b600067ffffffffffffffff8211156126145761261361257e565b5b61261d826123da565b9050602081019050919050565b82818337600083830152505050565b600061264c612647846125f9565b6125de565b90508281526020810184848401111561266857612667612579565b5b61267384828561262a565b509392505050565b600082601f8301126126905761268f612574565b5b81356126a0848260208601612639565b91505092915050565b6000602082840312156126bf576126be612328565b5b600082013567ffffffffffffffff8111156126dd576126dc61232d565b5b6126e98482850161267b565b91505092915050565b6126fb816124ae565b811461270657600080fd5b50565b600081359050612718816126f2565b92915050565b60006020828403121561273457612733612328565b5b600061274284828501612709565b91505092915050565b60008115159050919050565b6127608161274b565b82525050565b600060208201905061277b6000830184612757565b92915050565b600060e082019050612796600083018a6122f4565b6127a36020830189612757565b81810360408301526127b581886123eb565b905081810360608301526127c981876123eb565b90506127d860808301866122f4565b81810360a08301526127ea81856123eb565b905081810360c08301526127fe81846123eb565b905098975050505050505050565b600081519050919050565b600082825260208201905092915050565b6000819050602082019050919050565b612841816122ea565b82525050565b60006128538383612838565b60208301905092915050565b6000602082019050919050565b60006128778261280c565b6128818185612817565b935061288c83612828565b8060005b838110156128bd5781516128a48882612847565b97506128af8361285f565b925050600181019050612890565b5085935050505092915050565b600081519050919050565b600082825260208201905092915050565b6000819050602082019050919050565b6128ff8161274b565b82525050565b600061291183836128f6565b60208301905092915050565b6000602082019050919050565b6000612935826128ca565b61293f81856128d5565b935061294a836128e6565b8060005b8381101561297b5781516129628882612905565b975061296d8361291d565b92505060018101905061294e565b5085935050505092915050565b600081519050919050565b600082825260208201905092915050565b6000819050602082019050919050565b600082825260208201905092915050565b60006129d08261238b565b6129da81856129b4565b93506129ea8185602086016123a7565b6129f3816123da565b840191505092915050565b6000612a0a83836129c5565b905092915050565b6000602082019050919050565b6000612a2a82612988565b612a348185612993565b935083602082028501612a46856129a4565b8060005b85811015612a825784840389528151612a6385826129fe565b9450612a6e83612a12565b925060208a01995050600181019050612a4a565b50829750879550505050505092915050565b600060e0820190508181036000830152612aae818a61286c565b90508181036020830152612ac2818961292a565b90508181036040830152612ad68188612a1f565b90508181036060830152612aea8187612a1f565b90508181036080830152612afe818661286c565b905081810360a0830152612b128185612a1f565b905081810360c0830152612b268184612a1f565b905098975050505050505050565b600080600080600060a08688031215612b5057612b4f612328565b5b600086013567ffffffffffffffff811115612b6e57612b6d61232d565b5b612b7a8882890161267b565b955050602086013567ffffffffffffffff811115612b9b57612b9a61232d565b5b612ba78882890161267b565b9450506040612bb888828901612349565b935050606086013567ffffffffffffffff811115612bd957612bd861232d565b5b612be58882890161267b565b925050608086013567ffffffffffffffff811115612c0657612c0561232d565b5b612c128882890161267b565b9150509295509295909350565b612c28816124ae565b82525050565b6000602082019050612c436000830184612c1f565b92915050565b6000606083016000830151612c616000860182612838565b5060208301518482036020860152612c7982826129c5565b9150506040830151612c8e6040860182612838565b508091505092915050565b600061012082019050612caf600083018c6122f4565b612cbc602083018b6122f4565b8181036040830152612cce818a612c49565b9050612cdd6060830189612757565b8181036080830152612cef81886123eb565b905081810360a0830152612d0381876123eb565b9050612d1260c08301866122f4565b81810360e0830152612d2481856123eb565b9050612d34610100830184612c1f565b9a9950505050505050505050565b60006020820190508181036000830152612d5c818461292a565b905092915050565b7f4e487b7100000000000000000000000000000000000000000000000000000000600052601160045260246000fd5b6000612d9e826122ea565b91507fffffffffffffffffffffffffffffffffffffffffffffffffffffffffffffffff8203612dd057612dcf612d64565b5b600182019050919050565b6000612de6826122ea565b9150612df1836122ea565b9250827fffffffffffffffffffffffffffffffffffffffffffffffffffffffffffffffff03821115612e2657612e25612d64565b5b828201905092915050565b7f50657420616c72656164792061646f7074656400000000000000000000000000600082015250565b6000612e67601383612396565b9150612e7282612e31565b602082019050919050565b60006020820190508181036000830152612e9681612e5a565b9050919050565b7f4e487b7100000000000000000000000000000000000000000000000000000000600052602260045260246000fd5b60006002820490506001821680612ee457607f821691505b602082108103612ef757612ef6612e9d565b5b50919050565b7f4e487b7100000000000000000000000000000000000000000000000000000000600052603260045260246000fd5b600081905092915050565b6000612f428261238b565b612f4c8185612f2c565b9350612f5c8185602086016123a7565b80840191505092915050565b6000612f748284612f37565b915081905092915050565b60008190508160005260206000209050919050565b60008154612fa181612ecc565b612fab8186612f2c565b94506001821660008114612fc65760018114612fd75761300a565b60ff1983168652818601935061300a565b612fe085612f7f565b60005b8381101561300257815481890152600182019150602081019050612fe3565b838801955050505b50505092915050565b600061301f8284612f94565b915081905092915050565b6000613035826122ea565b9150613040836122ea565b92508282101561305357613052612d64565b5b828203905092915050565b7f416c726561647920766f7465642e000000000000000000000000000000000000600082015250565b6000613094600e83612396565b915061309f8261305e565b602082019050919050565b600060208201905081810360008301526130c381613087565b9050919050565b7f50657420646f6573206e6f742065786973742e00000000000000000000000000600082015250565b6000613100601383612396565b915061310b826130ca565b602082019050919050565b6000602082019050818103600083015261312f816130f3565b9050919050565b7f4f6e6c79206f776e657220616c6c6f7765642e00000000000000000000000000600082015250565b600061316c601383612396565b915061317782613136565b602082019050919050565b6000602082019050818103600083015261319b8161315f565b905091905056fea26469706673582212204d0b0ae99f3c30c77c2b668c2ecb37cb415994650fd15c6ed81cf1287edd435b64736f6c634300080d003368747470733a2f2f616e696d616c736f2e636f6d2f77702d636f6e74656e742f75706c6f6164732f323031372f30312f476f6c64656e2d5265747269657665725f362e6a7067",
  "immutableReferences": {},
  "source": "// SPDX-License-Identifier: MIT\r\npragma solidity ^0.8.0;\r\npragma experimental ABIEncoderV2;\r\n\r\n\r\ncontract Adoption{\r\n    address public owner;\r\n\r\n    struct Pet {\r\n        uint id;\r\n        uint voteCount;\r\n        Breed breed;\r\n        bool adopted;\r\n        string petName; \r\n        string picture; \r\n        uint age; \r\n        string location;\r\n        address adopter;\r\n    }\r\n    struct Breed {\r\n        uint id;\r\n        string breedName;\r\n        uint adotpionCount;\r\n    }\r\n\r\n    uint public petCount;\r\n    uint public breedCount;\r\n    uint public petAdotptionCount;\r\n    uint public mostAdoptedBreedId;\r\n    uint public adopterCount;\r\n\r\n    mapping(uint=>Pet) public pets;\r\n    mapping(uint=>Breed) public breeds;\r\n    mapping(address=>bool) public votedAddresses;\r\n    mapping(address=>bool) public isAdopter;\r\n\r\n    event DonationWithdrawn(uint amount);\r\n    event PetAdopted(uint petId);\r\n    event PetAdded(uint petId);\r\n\r\n    constructor() {\r\n        owner = msg.sender;\r\n        petCount = 0;\r\n        breedCount = 0;\r\n        petAdotptionCount = 0;\r\n        mostAdoptedBreedId = 0;\r\n        adopterCount = 0;\r\n        // init default pet\r\n        addPet(\"Scrappy\", \"https://animalso.com/wp-content/uploads/2017/01/Golden-Retriever_6.jpg\", \r\n            3, \"Golden Retriever\", \"Warren, MI\");\r\n    }\r\n    \r\n    // // Add breed\r\n    // function addBreed() external {\r\n    //     require(msg.sender == owner, \"Only owner allowed.\");\r\n    //     breedCount += 1;\r\n    //     breeds[breedCount] = Breed(breedCount, 0);\r\n    // }   \r\n\r\n    // // Add/register pet\r\n    // function addPet(uint _breedId) external {\r\n    //     require(_breedId <= breedCount, \"Breed does not exist.\");\r\n    //     petCount += 1;\r\n    //     pets[petCount] = Pet(petCount, 0, breeds[_breedId], false);\r\n    //     emit PetAdded(petCount);\r\n    // }\r\n\r\n    // Adopt a pet\r\n    function adoptPet(uint _petId) external {\r\n        require(!pets[_petId].adopted, \"Pet already adopted\");\r\n        pets[_petId].adopted = true;\r\n        breeds[pets[_petId].breed.id].adotpionCount += 1;\r\n        petAdotptionCount += 1;\r\n        if (breeds[pets[_petId].breed.id].adotpionCount > breeds[mostAdoptedBreedId].adotpionCount) {\r\n            mostAdoptedBreedId = pets[_petId].breed.id;\r\n        }\r\n        if (!isAdopter[msg.sender]) {\r\n            isAdopter[msg.sender] = true;\r\n            adopterCount += 1;\r\n        }\r\n        emit PetAdopted(_petId);\r\n    }\r\n\r\n    // Vote\r\n    function votePet(uint _petId) external {\r\n        require(!votedAddresses[msg.sender], \"Already voted.\");\r\n        require(_petId <= petCount, \"Pet does not exist.\");\r\n        pets[_petId].voteCount += 1;\r\n        votedAddresses[msg.sender] = true;\r\n    }\r\n    // GetVote\r\n    function getVote() external view returns (uint) {\r\n        uint mostPopular=0;\r\n        for(uint p = 0; p <petCount; p++){\r\n            if (pets[p].voteCount>pets[mostPopular].voteCount){\r\n                mostPopular=p;\r\n            }\r\n        }\r\n        return mostPopular+1;\r\n    }\r\n    // Withdraw donation from contract\r\n    function withdrawDonation() external returns (bool) {\r\n        require(msg.sender == owner, \"Only owner allowed.\");\r\n        uint amount=address(this).balance;\r\n        if (!payable(msg.sender).send(amount)) {\r\n            return false;\r\n        }\r\n        emit DonationWithdrawn(amount);\r\n        return true;\r\n    }\r\n\r\n    // Donate ether to petshop\r\n    fallback() external payable{}\r\n   \r\n// Adopting a pet\r\nfunction adopt(uint _petId) public returns (uint) {\r\n//   require(petId >= 0 && petId <= 31);\r\n  require(msg.sender != address(0));\r\n  pets[_petId].adopted = true;\r\n  pets[_petId].adopter = msg.sender;\r\n  return _petId;\r\n}\r\n\r\n// Retrieving the adopters\r\nfunction getAdopters() public view returns (address[] memory) {\r\n  address[] memory adopters = new address[](petCount);\r\n  for( uint i = 0; i < petCount; i++) {\r\n      adopters[i] = pets[i].adopter;\r\n  }\r\n  return adopters;\r\n}\r\n\r\nfunction getAdoptStatus() public view returns (bool[] memory) {\r\n  bool[] memory status = new bool[](petCount);\r\n  for( uint i = 0; i < petCount; i++) {\r\n      status[i] = pets[i].adopted;\r\n  }\r\n  return status;\r\n}\r\n\r\n// Add/register pet\r\n// function addPet(bytes32 name, string memory picture, uint age, bytes32 breedName, bytes32 location) public returns (uint){\r\n//     petCount += 1;\r\n//     pets[petCount] = Pet(petCount, false, name, picture, age, breedName, location);\r\n//     return petCount;\r\n// }\r\nfunction addBreedIfNeeded(string memory breedName) public returns (uint){\r\n  // check existanse\r\n  for (uint i = 0; i < breedCount; i++) {\r\n      // string compare\r\n      if (keccak256(abi.encodePacked(breeds[i].breedName)) == keccak256(abi.encodePacked(breedName))) {\r\n          return i;\r\n      }\r\n  }\r\n  // add new breed\r\n  breeds[breedCount] = Breed(breedCount, breedName, 0);\r\n  breedCount += 1;\r\n  return breedCount - 1;\r\n}\r\n\r\n\r\nfunction addPet(string memory petName, string memory picture, \r\n        uint age, string memory breedName, string memory location) \r\n        public returns (uint) {\r\n    // require(petCount >= 0 && petCount <= 31);\r\n    uint breedId = addBreedIfNeeded(breedName);\r\n    pets[petCount] = Pet(petCount, 0, breeds[breedId], false, petName, picture, age, location, address(0));\r\n    petCount += 1;\r\n    return petCount;\r\n}\r\n\r\n// function getPet(uint petId) public view returns (string memory){\r\n//     return pets[petId].info;\r\n// }\r\n\r\nfunction getLatestPet() public view returns (uint, bool, string memory, \r\n        string memory, uint, string memory, string memory){\r\n    if(petCount == 0){\r\n        return (0, false, '', '', 0, '', '');\r\n    }\r\n    return (pets[petCount-1].id, \r\n            pets[petCount-1].adopted, \r\n            pets[petCount-1].petName, \r\n            pets[petCount-1].picture, \r\n            pets[petCount-1].age, \r\n            pets[petCount-1].breed.breedName, \r\n            pets[petCount-1].location);\r\n}\r\n\r\nfunction getPetById(uint id) public view returns (uint, bool, string memory, \r\n        string memory, uint, string memory, string memory){\r\n    require(id < petCount);\r\n    return (pets[id].id, \r\n            pets[id].adopted, \r\n            pets[id].petName, \r\n            pets[id].picture, \r\n            pets[id].age, \r\n            pets[id].breed.breedName, \r\n            pets[id].location);\r\n}\r\n\r\nfunction getPetCount() public view returns (uint) {\r\n    return petCount;\r\n}\r\n\r\nfunction getAllPets() public view returns (uint[] memory ids, bool[] memory adopteds, string[] memory petNames, \r\n        string[] memory pictures, uint[] memory ages, string[] memory breedNames, string[] memory locations){\r\n// function getAllPets() public view returns (string[32] memory){\r\n    ids = new uint[](petCount);\r\n    adopteds = new bool[](petCount);\r\n    petNames = new string[](petCount);\r\n    pictures = new string[](petCount);\r\n    ages = new uint[](petCount);\r\n    breedNames = new string[](petCount);\r\n    locations = new string[](petCount);\r\n    for(uint i = 0; i < petCount; i++) {\r\n        string memory petName = pets[i].petName;\r\n        string memory picture = pets[i].picture;\r\n        string memory breedName = pets[i].breed.breedName;\r\n        string memory location = pets[i].location;\r\n        ids[i] = pets[i].id;\r\n        adopteds[i] = pets[i].adopted;\r\n        petNames[i] = petName;\r\n        pictures[i] = picture;\r\n        ages[i] = pets[i].age;\r\n        breedNames[i] = breedName;\r\n        locations[i] = location;\r\n    }\r\n    return (ids, adopteds, petNames, pictures, ages, breedNames, locations);\r\n}\r\n\r\n\r\n\r\n}",
  "sourcePath": "C:\\Users\\echo\\Desktop\\Petshop\\ideal-telegram\\contracts\\Adoption.sol",
  "compiler": {
    "name": "solc",
    "version": "0.8.13+commit.abaa5c0e.Emscripten.clang"
  },
  "schemaVersion": "3.4.3",
  "updatedAt": "2022-04-27T03:00:00.387Z",
  "networkType": "ethereum",
  "devdoc": {
    "kind": "dev",
    "methods": {},
    "version": 1
  },
  "userdoc": {
    "kind": "user",
    "methods": {},
    "version": 1
  }
}